{
	"TokenBank.sol": {
		"TokenBank": {
			"abi": [
				{
					"inputs": [],
					"stateMutability": "nonpayable",
					"type": "constructor"
				},
				{
					"inputs": [
						{
							"internalType": "address",
							"name": "token",
							"type": "address"
						},
						{
							"internalType": "uint256",
							"name": "_value",
							"type": "uint256"
						}
					],
					"name": "deposit",
					"outputs": [],
					"stateMutability": "nonpayable",
					"type": "function"
				},
				{
					"inputs": [
						{
							"internalType": "address",
							"name": "",
							"type": "address"
						},
						{
							"internalType": "address",
							"name": "",
							"type": "address"
						}
					],
					"name": "userTokenBalances",
					"outputs": [
						{
							"internalType": "uint256",
							"name": "",
							"type": "uint256"
						}
					],
					"stateMutability": "view",
					"type": "function"
				},
				{
					"inputs": [
						{
							"internalType": "address",
							"name": "token",
							"type": "address"
						},
						{
							"internalType": "uint256",
							"name": "_value",
							"type": "uint256"
						}
					],
					"name": "withdraw",
					"outputs": [],
					"stateMutability": "nonpayable",
					"type": "function"
				}
			],
			"devdoc": {
				"kind": "dev",
				"methods": {},
				"version": 1
			},
			"evm": {
				"assembly": "    /* \"TokenBank.sol\":426:1396  contract TokenBank {... */\n  mstore(0x40, 0x80)\n    /* \"TokenBank.sol\":637:653  constructor() {} */\n  callvalue\n  dup1\n  iszero\n  tag_1\n  jumpi\n  0x00\n  dup1\n  revert\ntag_1:\n  pop\n    /* \"TokenBank.sol\":426:1396  contract TokenBank {... */\n  dataSize(sub_0)\n  dup1\n  dataOffset(sub_0)\n  0x00\n  codecopy\n  0x00\n  return\nstop\n\nsub_0: assembly {\n        /* \"TokenBank.sol\":426:1396  contract TokenBank {... */\n      mstore(0x40, 0x80)\n      callvalue\n      dup1\n      iszero\n      tag_1\n      jumpi\n      0x00\n      dup1\n      revert\n    tag_1:\n      pop\n      jumpi(tag_2, lt(calldatasize, 0x04))\n      shr(0xe0, calldataload(0x00))\n      dup1\n      0x45f2d105\n      eq\n      tag_3\n      jumpi\n      dup1\n      0x47e7ef24\n      eq\n      tag_4\n      jumpi\n      dup1\n      0xf3fef3a3\n      eq\n      tag_5\n      jumpi\n    tag_2:\n      0x00\n      dup1\n      revert\n        /* \"TokenBank.sol\":556:628  mapping(address => mapping(address => uint256)) public userTokenBalances */\n    tag_3:\n      tag_6\n      0x04\n      dup1\n      calldatasize\n      sub\n      dup2\n      add\n      swap1\n      tag_7\n      swap2\n      swap1\n      tag_8\n      jump\t// in\n    tag_7:\n      tag_9\n      jump\t// in\n    tag_6:\n      mload(0x40)\n      tag_10\n      swap2\n      swap1\n      tag_11\n      jump\t// in\n    tag_10:\n      mload(0x40)\n      dup1\n      swap2\n      sub\n      swap1\n      return\n        /* \"TokenBank.sol\":735:964  function deposit(address token, uint256 _value) public {... */\n    tag_4:\n      tag_12\n      0x04\n      dup1\n      calldatasize\n      sub\n      dup2\n      add\n      swap1\n      tag_13\n      swap2\n      swap1\n      tag_14\n      jump\t// in\n    tag_13:\n      tag_15\n      jump\t// in\n    tag_12:\n      stop\n        /* \"TokenBank.sol\":1026:1393  function withdraw(address token, uint256 _value) public {... */\n    tag_5:\n      tag_16\n      0x04\n      dup1\n      calldatasize\n      sub\n      dup2\n      add\n      swap1\n      tag_17\n      swap2\n      swap1\n      tag_14\n      jump\t// in\n    tag_17:\n      tag_18\n      jump\t// in\n    tag_16:\n      stop\n        /* \"TokenBank.sol\":556:628  mapping(address => mapping(address => uint256)) public userTokenBalances */\n    tag_9:\n      mstore(0x20, 0x00)\n      dup2\n      0x00\n      mstore\n      mstore(0x20, keccak256(0x00, 0x40))\n      dup1\n      0x00\n      mstore\n      keccak256(0x00, 0x40)\n      0x00\n      swap2\n      pop\n      swap2\n      pop\n      pop\n      sload\n      dup2\n      jump\t// out\n        /* \"TokenBank.sol\":735:964  function deposit(address token, uint256 _value) public {... */\n    tag_15:\n        /* \"TokenBank.sol\":801:816  BaseERC20 erc20 */\n      0x00\n        /* \"TokenBank.sol\":829:834  token */\n      dup3\n        /* \"TokenBank.sol\":801:835  BaseERC20 erc20 = BaseERC20(token) */\n      swap1\n      pop\n        /* \"TokenBank.sol\":846:851  erc20 */\n      dup1\n        /* \"TokenBank.sol\":846:864  erc20.transferFrom */\n      0xffffffffffffffffffffffffffffffffffffffff\n      and\n      0x23b872dd\n        /* \"TokenBank.sol\":865:875  msg.sender */\n      caller\n        /* \"TokenBank.sol\":885:889  this */\n      address\n        /* \"TokenBank.sol\":892:898  _value */\n      dup6\n        /* \"TokenBank.sol\":846:899  erc20.transferFrom(msg.sender, address(this), _value) */\n      mload(0x40)\n      dup5\n      0xffffffff\n      and\n      0xe0\n      shl\n      dup2\n      mstore\n      0x04\n      add\n      tag_20\n      swap4\n      swap3\n      swap2\n      swap1\n      tag_21\n      jump\t// in\n    tag_20:\n      0x20\n      mload(0x40)\n      dup1\n      dup4\n      sub\n      dup2\n      0x00\n      dup8\n      gas\n      call\n      iszero\n      dup1\n      iszero\n      tag_23\n      jumpi\n      returndatasize\n      0x00\n      dup1\n      returndatacopy\n      revert(0x00, returndatasize)\n    tag_23:\n      pop\n      pop\n      pop\n      pop\n      mload(0x40)\n      returndatasize\n      not(0x1f)\n      0x1f\n      dup3\n      add\n      and\n      dup3\n      add\n      dup1\n      0x40\n      mstore\n      pop\n      dup2\n      add\n      swap1\n      tag_24\n      swap2\n      swap1\n      tag_25\n      jump\t// in\n    tag_24:\n      pop\n        /* \"TokenBank.sol\":950:956  _value */\n      dup2\n        /* \"TokenBank.sol\":910:927  userTokenBalances */\n      0x00\n        /* \"TokenBank.sol\":910:934  userTokenBalances[token] */\n      dup1\n        /* \"TokenBank.sol\":928:933  token */\n      dup6\n        /* \"TokenBank.sol\":910:934  userTokenBalances[token] */\n      0xffffffffffffffffffffffffffffffffffffffff\n      and\n      0xffffffffffffffffffffffffffffffffffffffff\n      and\n      dup2\n      mstore\n      0x20\n      add\n      swap1\n      dup2\n      mstore\n      0x20\n      add\n      0x00\n      keccak256\n        /* \"TokenBank.sol\":910:946  userTokenBalances[token][msg.sender] */\n      0x00\n        /* \"TokenBank.sol\":935:945  msg.sender */\n      caller\n        /* \"TokenBank.sol\":910:946  userTokenBalances[token][msg.sender] */\n      0xffffffffffffffffffffffffffffffffffffffff\n      and\n      0xffffffffffffffffffffffffffffffffffffffff\n      and\n      dup2\n      mstore\n      0x20\n      add\n      swap1\n      dup2\n      mstore\n      0x20\n      add\n      0x00\n      keccak256\n      0x00\n        /* \"TokenBank.sol\":910:956  userTokenBalances[token][msg.sender] += _value */\n      dup3\n      dup3\n      sload\n      tag_26\n      swap2\n      swap1\n      tag_27\n      jump\t// in\n    tag_26:\n      swap3\n      pop\n      pop\n      dup2\n      swap1\n      sstore\n      pop\n        /* \"TokenBank.sol\":790:964  {... */\n      pop\n        /* \"TokenBank.sol\":735:964  function deposit(address token, uint256 _value) public {... */\n      pop\n      pop\n      jump\t// out\n        /* \"TokenBank.sol\":1026:1393  function withdraw(address token, uint256 _value) public {... */\n    tag_18:\n        /* \"TokenBank.sol\":1093:1108  uint256 balance */\n      0x00\n        /* \"TokenBank.sol\":1111:1128  userTokenBalances */\n      dup1\n        /* \"TokenBank.sol\":1111:1135  userTokenBalances[token] */\n      0x00\n        /* \"TokenBank.sol\":1129:1134  token */\n      dup5\n        /* \"TokenBank.sol\":1111:1135  userTokenBalances[token] */\n      0xffffffffffffffffffffffffffffffffffffffff\n      and\n      0xffffffffffffffffffffffffffffffffffffffff\n      and\n      dup2\n      mstore\n      0x20\n      add\n      swap1\n      dup2\n      mstore\n      0x20\n      add\n      0x00\n      keccak256\n        /* \"TokenBank.sol\":1111:1147  userTokenBalances[token][msg.sender] */\n      0x00\n        /* \"TokenBank.sol\":1136:1146  msg.sender */\n      caller\n        /* \"TokenBank.sol\":1111:1147  userTokenBalances[token][msg.sender] */\n      0xffffffffffffffffffffffffffffffffffffffff\n      and\n      0xffffffffffffffffffffffffffffffffffffffff\n      and\n      dup2\n      mstore\n      0x20\n      add\n      swap1\n      dup2\n      mstore\n      0x20\n      add\n      0x00\n      keccak256\n      sload\n        /* \"TokenBank.sol\":1093:1147  uint256 balance = userTokenBalances[token][msg.sender] */\n      swap1\n      pop\n        /* \"TokenBank.sol\":1176:1183  balance */\n      dup1\n        /* \"TokenBank.sol\":1166:1172  _value */\n      dup3\n        /* \"TokenBank.sol\":1166:1183  _value <= balance */\n      gt\n      iszero\n        /* \"TokenBank.sol\":1158:1225  require(_value <= balance, \"Bank: withdraw amount exceeds balance\") */\n      tag_29\n      jumpi\n      mload(0x40)\n      0x08c379a000000000000000000000000000000000000000000000000000000000\n      dup2\n      mstore\n      0x04\n      add\n      tag_30\n      swap1\n      tag_31\n      jump\t// in\n    tag_30:\n      mload(0x40)\n      dup1\n      swap2\n      sub\n      swap1\n      revert\n    tag_29:\n        /* \"TokenBank.sol\":1238:1253  BaseERC20 erc20 */\n      0x00\n        /* \"TokenBank.sol\":1266:1271  token */\n      dup4\n        /* \"TokenBank.sol\":1238:1272  BaseERC20 erc20 = BaseERC20(token) */\n      swap1\n      pop\n        /* \"TokenBank.sol\":1325:1331  _value */\n      dup3\n        /* \"TokenBank.sol\":1285:1302  userTokenBalances */\n      0x00\n        /* \"TokenBank.sol\":1285:1309  userTokenBalances[token] */\n      dup1\n        /* \"TokenBank.sol\":1303:1308  token */\n      dup7\n        /* \"TokenBank.sol\":1285:1309  userTokenBalances[token] */\n      0xffffffffffffffffffffffffffffffffffffffff\n      and\n      0xffffffffffffffffffffffffffffffffffffffff\n      and\n      dup2\n      mstore\n      0x20\n      add\n      swap1\n      dup2\n      mstore\n      0x20\n      add\n      0x00\n      keccak256\n        /* \"TokenBank.sol\":1285:1321  userTokenBalances[token][msg.sender] */\n      0x00\n        /* \"TokenBank.sol\":1310:1320  msg.sender */\n      caller\n        /* \"TokenBank.sol\":1285:1321  userTokenBalances[token][msg.sender] */\n      0xffffffffffffffffffffffffffffffffffffffff\n      and\n      0xffffffffffffffffffffffffffffffffffffffff\n      and\n      dup2\n      mstore\n      0x20\n      add\n      swap1\n      dup2\n      mstore\n      0x20\n      add\n      0x00\n      keccak256\n      0x00\n        /* \"TokenBank.sol\":1285:1331  userTokenBalances[token][msg.sender] -= _value */\n      dup3\n      dup3\n      sload\n      tag_32\n      swap2\n      swap1\n      tag_33\n      jump\t// in\n    tag_32:\n      swap3\n      pop\n      pop\n      dup2\n      swap1\n      sstore\n      pop\n        /* \"TokenBank.sol\":1342:1347  erc20 */\n      dup1\n        /* \"TokenBank.sol\":1342:1356  erc20.transfer */\n      0xffffffffffffffffffffffffffffffffffffffff\n      and\n      0xa9059cbb\n        /* \"TokenBank.sol\":1365:1375  msg.sender */\n      caller\n        /* \"TokenBank.sol\":1378:1384  _value */\n      dup6\n        /* \"TokenBank.sol\":1342:1385  erc20.transfer(address(msg.sender), _value) */\n      mload(0x40)\n      dup4\n      0xffffffff\n      and\n      0xe0\n      shl\n      dup2\n      mstore\n      0x04\n      add\n      tag_34\n      swap3\n      swap2\n      swap1\n      tag_35\n      jump\t// in\n    tag_34:\n      0x20\n      mload(0x40)\n      dup1\n      dup4\n      sub\n      dup2\n      0x00\n      dup8\n      gas\n      call\n      iszero\n      dup1\n      iszero\n      tag_37\n      jumpi\n      returndatasize\n      0x00\n      dup1\n      returndatacopy\n      revert(0x00, returndatasize)\n    tag_37:\n      pop\n      pop\n      pop\n      pop\n      mload(0x40)\n      returndatasize\n      not(0x1f)\n      0x1f\n      dup3\n      add\n      and\n      dup3\n      add\n      dup1\n      0x40\n      mstore\n      pop\n      dup2\n      add\n      swap1\n      tag_38\n      swap2\n      swap1\n      tag_25\n      jump\t// in\n    tag_38:\n      pop\n        /* \"TokenBank.sol\":1082:1393  {... */\n      pop\n      pop\n        /* \"TokenBank.sol\":1026:1393  function withdraw(address token, uint256 _value) public {... */\n      pop\n      pop\n      jump\t// out\n        /* \"#utility.yul\":88:205   */\n    tag_40:\n        /* \"#utility.yul\":197:198   */\n      0x00\n        /* \"#utility.yul\":194:195   */\n      dup1\n        /* \"#utility.yul\":187:199   */\n      revert\n        /* \"#utility.yul\":334:460   */\n    tag_42:\n        /* \"#utility.yul\":371:378   */\n      0x00\n        /* \"#utility.yul\":411:453   */\n      0xffffffffffffffffffffffffffffffffffffffff\n        /* \"#utility.yul\":404:409   */\n      dup3\n        /* \"#utility.yul\":400:454   */\n      and\n        /* \"#utility.yul\":389:454   */\n      swap1\n      pop\n        /* \"#utility.yul\":334:460   */\n      swap2\n      swap1\n      pop\n      jump\t// out\n        /* \"#utility.yul\":466:562   */\n    tag_43:\n        /* \"#utility.yul\":503:510   */\n      0x00\n        /* \"#utility.yul\":532:556   */\n      tag_64\n        /* \"#utility.yul\":550:555   */\n      dup3\n        /* \"#utility.yul\":532:556   */\n      tag_42\n      jump\t// in\n    tag_64:\n        /* \"#utility.yul\":521:556   */\n      swap1\n      pop\n        /* \"#utility.yul\":466:562   */\n      swap2\n      swap1\n      pop\n      jump\t// out\n        /* \"#utility.yul\":568:690   */\n    tag_44:\n        /* \"#utility.yul\":641:665   */\n      tag_66\n        /* \"#utility.yul\":659:664   */\n      dup2\n        /* \"#utility.yul\":641:665   */\n      tag_43\n      jump\t// in\n    tag_66:\n        /* \"#utility.yul\":634:639   */\n      dup2\n        /* \"#utility.yul\":631:666   */\n      eq\n        /* \"#utility.yul\":621:684   */\n      tag_67\n      jumpi\n        /* \"#utility.yul\":680:681   */\n      0x00\n        /* \"#utility.yul\":677:678   */\n      dup1\n        /* \"#utility.yul\":670:682   */\n      revert\n        /* \"#utility.yul\":621:684   */\n    tag_67:\n        /* \"#utility.yul\":568:690   */\n      pop\n      jump\t// out\n        /* \"#utility.yul\":696:835   */\n    tag_45:\n        /* \"#utility.yul\":742:747   */\n      0x00\n        /* \"#utility.yul\":780:786   */\n      dup2\n        /* \"#utility.yul\":767:787   */\n      calldataload\n        /* \"#utility.yul\":758:787   */\n      swap1\n      pop\n        /* \"#utility.yul\":796:829   */\n      tag_69\n        /* \"#utility.yul\":823:828   */\n      dup2\n        /* \"#utility.yul\":796:829   */\n      tag_44\n      jump\t// in\n    tag_69:\n        /* \"#utility.yul\":696:835   */\n      swap3\n      swap2\n      pop\n      pop\n      jump\t// out\n        /* \"#utility.yul\":841:1315   */\n    tag_8:\n        /* \"#utility.yul\":909:915   */\n      0x00\n        /* \"#utility.yul\":917:923   */\n      dup1\n        /* \"#utility.yul\":966:968   */\n      0x40\n        /* \"#utility.yul\":954:963   */\n      dup4\n        /* \"#utility.yul\":945:952   */\n      dup6\n        /* \"#utility.yul\":941:964   */\n      sub\n        /* \"#utility.yul\":937:969   */\n      slt\n        /* \"#utility.yul\":934:1053   */\n      iszero\n      tag_71\n      jumpi\n        /* \"#utility.yul\":972:1051   */\n      tag_72\n      tag_40\n      jump\t// in\n    tag_72:\n        /* \"#utility.yul\":934:1053   */\n    tag_71:\n        /* \"#utility.yul\":1092:1093   */\n      0x00\n        /* \"#utility.yul\":1117:1170   */\n      tag_73\n        /* \"#utility.yul\":1162:1169   */\n      dup6\n        /* \"#utility.yul\":1153:1159   */\n      dup3\n        /* \"#utility.yul\":1142:1151   */\n      dup7\n        /* \"#utility.yul\":1138:1160   */\n      add\n        /* \"#utility.yul\":1117:1170   */\n      tag_45\n      jump\t// in\n    tag_73:\n        /* \"#utility.yul\":1107:1170   */\n      swap3\n      pop\n        /* \"#utility.yul\":1063:1180   */\n      pop\n        /* \"#utility.yul\":1219:1221   */\n      0x20\n        /* \"#utility.yul\":1245:1298   */\n      tag_74\n        /* \"#utility.yul\":1290:1297   */\n      dup6\n        /* \"#utility.yul\":1281:1287   */\n      dup3\n        /* \"#utility.yul\":1270:1279   */\n      dup7\n        /* \"#utility.yul\":1266:1288   */\n      add\n        /* \"#utility.yul\":1245:1298   */\n      tag_45\n      jump\t// in\n    tag_74:\n        /* \"#utility.yul\":1235:1298   */\n      swap2\n      pop\n        /* \"#utility.yul\":1190:1308   */\n      pop\n        /* \"#utility.yul\":841:1315   */\n      swap3\n      pop\n      swap3\n      swap1\n      pop\n      jump\t// out\n        /* \"#utility.yul\":1321:1398   */\n    tag_46:\n        /* \"#utility.yul\":1358:1365   */\n      0x00\n        /* \"#utility.yul\":1387:1392   */\n      dup2\n        /* \"#utility.yul\":1376:1392   */\n      swap1\n      pop\n        /* \"#utility.yul\":1321:1398   */\n      swap2\n      swap1\n      pop\n      jump\t// out\n        /* \"#utility.yul\":1404:1522   */\n    tag_47:\n        /* \"#utility.yul\":1491:1515   */\n      tag_77\n        /* \"#utility.yul\":1509:1514   */\n      dup2\n        /* \"#utility.yul\":1491:1515   */\n      tag_46\n      jump\t// in\n    tag_77:\n        /* \"#utility.yul\":1486:1489   */\n      dup3\n        /* \"#utility.yul\":1479:1516   */\n      mstore\n        /* \"#utility.yul\":1404:1522   */\n      pop\n      pop\n      jump\t// out\n        /* \"#utility.yul\":1528:1750   */\n    tag_11:\n        /* \"#utility.yul\":1621:1625   */\n      0x00\n        /* \"#utility.yul\":1659:1661   */\n      0x20\n        /* \"#utility.yul\":1648:1657   */\n      dup3\n        /* \"#utility.yul\":1644:1662   */\n      add\n        /* \"#utility.yul\":1636:1662   */\n      swap1\n      pop\n        /* \"#utility.yul\":1672:1743   */\n      tag_79\n        /* \"#utility.yul\":1740:1741   */\n      0x00\n        /* \"#utility.yul\":1729:1738   */\n      dup4\n        /* \"#utility.yul\":1725:1742   */\n      add\n        /* \"#utility.yul\":1716:1722   */\n      dup5\n        /* \"#utility.yul\":1672:1743   */\n      tag_47\n      jump\t// in\n    tag_79:\n        /* \"#utility.yul\":1528:1750   */\n      swap3\n      swap2\n      pop\n      pop\n      jump\t// out\n        /* \"#utility.yul\":1756:1878   */\n    tag_48:\n        /* \"#utility.yul\":1829:1853   */\n      tag_81\n        /* \"#utility.yul\":1847:1852   */\n      dup2\n        /* \"#utility.yul\":1829:1853   */\n      tag_46\n      jump\t// in\n    tag_81:\n        /* \"#utility.yul\":1822:1827   */\n      dup2\n        /* \"#utility.yul\":1819:1854   */\n      eq\n        /* \"#utility.yul\":1809:1872   */\n      tag_82\n      jumpi\n        /* \"#utility.yul\":1868:1869   */\n      0x00\n        /* \"#utility.yul\":1865:1866   */\n      dup1\n        /* \"#utility.yul\":1858:1870   */\n      revert\n        /* \"#utility.yul\":1809:1872   */\n    tag_82:\n        /* \"#utility.yul\":1756:1878   */\n      pop\n      jump\t// out\n        /* \"#utility.yul\":1884:2023   */\n    tag_49:\n        /* \"#utility.yul\":1930:1935   */\n      0x00\n        /* \"#utility.yul\":1968:1974   */\n      dup2\n        /* \"#utility.yul\":1955:1975   */\n      calldataload\n        /* \"#utility.yul\":1946:1975   */\n      swap1\n      pop\n        /* \"#utility.yul\":1984:2017   */\n      tag_84\n        /* \"#utility.yul\":2011:2016   */\n      dup2\n        /* \"#utility.yul\":1984:2017   */\n      tag_48\n      jump\t// in\n    tag_84:\n        /* \"#utility.yul\":1884:2023   */\n      swap3\n      swap2\n      pop\n      pop\n      jump\t// out\n        /* \"#utility.yul\":2029:2503   */\n    tag_14:\n        /* \"#utility.yul\":2097:2103   */\n      0x00\n        /* \"#utility.yul\":2105:2111   */\n      dup1\n        /* \"#utility.yul\":2154:2156   */\n      0x40\n        /* \"#utility.yul\":2142:2151   */\n      dup4\n        /* \"#utility.yul\":2133:2140   */\n      dup6\n        /* \"#utility.yul\":2129:2152   */\n      sub\n        /* \"#utility.yul\":2125:2157   */\n      slt\n        /* \"#utility.yul\":2122:2241   */\n      iszero\n      tag_86\n      jumpi\n        /* \"#utility.yul\":2160:2239   */\n      tag_87\n      tag_40\n      jump\t// in\n    tag_87:\n        /* \"#utility.yul\":2122:2241   */\n    tag_86:\n        /* \"#utility.yul\":2280:2281   */\n      0x00\n        /* \"#utility.yul\":2305:2358   */\n      tag_88\n        /* \"#utility.yul\":2350:2357   */\n      dup6\n        /* \"#utility.yul\":2341:2347   */\n      dup3\n        /* \"#utility.yul\":2330:2339   */\n      dup7\n        /* \"#utility.yul\":2326:2348   */\n      add\n        /* \"#utility.yul\":2305:2358   */\n      tag_45\n      jump\t// in\n    tag_88:\n        /* \"#utility.yul\":2295:2358   */\n      swap3\n      pop\n        /* \"#utility.yul\":2251:2368   */\n      pop\n        /* \"#utility.yul\":2407:2409   */\n      0x20\n        /* \"#utility.yul\":2433:2486   */\n      tag_89\n        /* \"#utility.yul\":2478:2485   */\n      dup6\n        /* \"#utility.yul\":2469:2475   */\n      dup3\n        /* \"#utility.yul\":2458:2467   */\n      dup7\n        /* \"#utility.yul\":2454:2476   */\n      add\n        /* \"#utility.yul\":2433:2486   */\n      tag_49\n      jump\t// in\n    tag_89:\n        /* \"#utility.yul\":2423:2486   */\n      swap2\n      pop\n        /* \"#utility.yul\":2378:2496   */\n      pop\n        /* \"#utility.yul\":2029:2503   */\n      swap3\n      pop\n      swap3\n      swap1\n      pop\n      jump\t// out\n        /* \"#utility.yul\":2509:2627   */\n    tag_50:\n        /* \"#utility.yul\":2596:2620   */\n      tag_91\n        /* \"#utility.yul\":2614:2619   */\n      dup2\n        /* \"#utility.yul\":2596:2620   */\n      tag_43\n      jump\t// in\n    tag_91:\n        /* \"#utility.yul\":2591:2594   */\n      dup3\n        /* \"#utility.yul\":2584:2621   */\n      mstore\n        /* \"#utility.yul\":2509:2627   */\n      pop\n      pop\n      jump\t// out\n        /* \"#utility.yul\":2633:3075   */\n    tag_21:\n        /* \"#utility.yul\":2782:2786   */\n      0x00\n        /* \"#utility.yul\":2820:2822   */\n      0x60\n        /* \"#utility.yul\":2809:2818   */\n      dup3\n        /* \"#utility.yul\":2805:2823   */\n      add\n        /* \"#utility.yul\":2797:2823   */\n      swap1\n      pop\n        /* \"#utility.yul\":2833:2904   */\n      tag_93\n        /* \"#utility.yul\":2901:2902   */\n      0x00\n        /* \"#utility.yul\":2890:2899   */\n      dup4\n        /* \"#utility.yul\":2886:2903   */\n      add\n        /* \"#utility.yul\":2877:2883   */\n      dup7\n        /* \"#utility.yul\":2833:2904   */\n      tag_50\n      jump\t// in\n    tag_93:\n        /* \"#utility.yul\":2914:2986   */\n      tag_94\n        /* \"#utility.yul\":2982:2984   */\n      0x20\n        /* \"#utility.yul\":2971:2980   */\n      dup4\n        /* \"#utility.yul\":2967:2985   */\n      add\n        /* \"#utility.yul\":2958:2964   */\n      dup6\n        /* \"#utility.yul\":2914:2986   */\n      tag_50\n      jump\t// in\n    tag_94:\n        /* \"#utility.yul\":2996:3068   */\n      tag_95\n        /* \"#utility.yul\":3064:3066   */\n      0x40\n        /* \"#utility.yul\":3053:3062   */\n      dup4\n        /* \"#utility.yul\":3049:3067   */\n      add\n        /* \"#utility.yul\":3040:3046   */\n      dup5\n        /* \"#utility.yul\":2996:3068   */\n      tag_47\n      jump\t// in\n    tag_95:\n        /* \"#utility.yul\":2633:3075   */\n      swap5\n      swap4\n      pop\n      pop\n      pop\n      pop\n      jump\t// out\n        /* \"#utility.yul\":3081:3171   */\n    tag_51:\n        /* \"#utility.yul\":3115:3122   */\n      0x00\n        /* \"#utility.yul\":3158:3163   */\n      dup2\n        /* \"#utility.yul\":3151:3164   */\n      iszero\n        /* \"#utility.yul\":3144:3165   */\n      iszero\n        /* \"#utility.yul\":3133:3165   */\n      swap1\n      pop\n        /* \"#utility.yul\":3081:3171   */\n      swap2\n      swap1\n      pop\n      jump\t// out\n        /* \"#utility.yul\":3177:3293   */\n    tag_52:\n        /* \"#utility.yul\":3247:3268   */\n      tag_98\n        /* \"#utility.yul\":3262:3267   */\n      dup2\n        /* \"#utility.yul\":3247:3268   */\n      tag_51\n      jump\t// in\n    tag_98:\n        /* \"#utility.yul\":3240:3245   */\n      dup2\n        /* \"#utility.yul\":3237:3269   */\n      eq\n        /* \"#utility.yul\":3227:3287   */\n      tag_99\n      jumpi\n        /* \"#utility.yul\":3283:3284   */\n      0x00\n        /* \"#utility.yul\":3280:3281   */\n      dup1\n        /* \"#utility.yul\":3273:3285   */\n      revert\n        /* \"#utility.yul\":3227:3287   */\n    tag_99:\n        /* \"#utility.yul\":3177:3293   */\n      pop\n      jump\t// out\n        /* \"#utility.yul\":3299:3436   */\n    tag_53:\n        /* \"#utility.yul\":3353:3358   */\n      0x00\n        /* \"#utility.yul\":3384:3390   */\n      dup2\n        /* \"#utility.yul\":3378:3391   */\n      mload\n        /* \"#utility.yul\":3369:3391   */\n      swap1\n      pop\n        /* \"#utility.yul\":3400:3430   */\n      tag_101\n        /* \"#utility.yul\":3424:3429   */\n      dup2\n        /* \"#utility.yul\":3400:3430   */\n      tag_52\n      jump\t// in\n    tag_101:\n        /* \"#utility.yul\":3299:3436   */\n      swap3\n      swap2\n      pop\n      pop\n      jump\t// out\n        /* \"#utility.yul\":3442:3787   */\n    tag_25:\n        /* \"#utility.yul\":3509:3515   */\n      0x00\n        /* \"#utility.yul\":3558:3560   */\n      0x20\n        /* \"#utility.yul\":3546:3555   */\n      dup3\n        /* \"#utility.yul\":3537:3544   */\n      dup5\n        /* \"#utility.yul\":3533:3556   */\n      sub\n        /* \"#utility.yul\":3529:3561   */\n      slt\n        /* \"#utility.yul\":3526:3645   */\n      iszero\n      tag_103\n      jumpi\n        /* \"#utility.yul\":3564:3643   */\n      tag_104\n      tag_40\n      jump\t// in\n    tag_104:\n        /* \"#utility.yul\":3526:3645   */\n    tag_103:\n        /* \"#utility.yul\":3684:3685   */\n      0x00\n        /* \"#utility.yul\":3709:3770   */\n      tag_105\n        /* \"#utility.yul\":3762:3769   */\n      dup5\n        /* \"#utility.yul\":3753:3759   */\n      dup3\n        /* \"#utility.yul\":3742:3751   */\n      dup6\n        /* \"#utility.yul\":3738:3760   */\n      add\n        /* \"#utility.yul\":3709:3770   */\n      tag_53\n      jump\t// in\n    tag_105:\n        /* \"#utility.yul\":3699:3770   */\n      swap2\n      pop\n        /* \"#utility.yul\":3655:3780   */\n      pop\n        /* \"#utility.yul\":3442:3787   */\n      swap3\n      swap2\n      pop\n      pop\n      jump\t// out\n        /* \"#utility.yul\":3793:3973   */\n    tag_54:\n        /* \"#utility.yul\":3841:3918   */\n      0x4e487b7100000000000000000000000000000000000000000000000000000000\n        /* \"#utility.yul\":3838:3839   */\n      0x00\n        /* \"#utility.yul\":3831:3919   */\n      mstore\n        /* \"#utility.yul\":3938:3942   */\n      0x11\n        /* \"#utility.yul\":3935:3936   */\n      0x04\n        /* \"#utility.yul\":3928:3943   */\n      mstore\n        /* \"#utility.yul\":3962:3966   */\n      0x24\n        /* \"#utility.yul\":3959:3960   */\n      0x00\n        /* \"#utility.yul\":3952:3967   */\n      revert\n        /* \"#utility.yul\":3979:4170   */\n    tag_27:\n        /* \"#utility.yul\":4019:4022   */\n      0x00\n        /* \"#utility.yul\":4038:4058   */\n      tag_108\n        /* \"#utility.yul\":4056:4057   */\n      dup3\n        /* \"#utility.yul\":4038:4058   */\n      tag_46\n      jump\t// in\n    tag_108:\n        /* \"#utility.yul\":4033:4058   */\n      swap2\n      pop\n        /* \"#utility.yul\":4072:4092   */\n      tag_109\n        /* \"#utility.yul\":4090:4091   */\n      dup4\n        /* \"#utility.yul\":4072:4092   */\n      tag_46\n      jump\t// in\n    tag_109:\n        /* \"#utility.yul\":4067:4092   */\n      swap3\n      pop\n        /* \"#utility.yul\":4115:4116   */\n      dup3\n        /* \"#utility.yul\":4112:4113   */\n      dup3\n        /* \"#utility.yul\":4108:4117   */\n      add\n        /* \"#utility.yul\":4101:4117   */\n      swap1\n      pop\n        /* \"#utility.yul\":4136:4139   */\n      dup1\n        /* \"#utility.yul\":4133:4134   */\n      dup3\n        /* \"#utility.yul\":4130:4140   */\n      gt\n        /* \"#utility.yul\":4127:4163   */\n      iszero\n      tag_110\n      jumpi\n        /* \"#utility.yul\":4143:4161   */\n      tag_111\n      tag_54\n      jump\t// in\n    tag_111:\n        /* \"#utility.yul\":4127:4163   */\n    tag_110:\n        /* \"#utility.yul\":3979:4170   */\n      swap3\n      swap2\n      pop\n      pop\n      jump\t// out\n        /* \"#utility.yul\":4176:4345   */\n    tag_55:\n        /* \"#utility.yul\":4260:4271   */\n      0x00\n        /* \"#utility.yul\":4294:4300   */\n      dup3\n        /* \"#utility.yul\":4289:4292   */\n      dup3\n        /* \"#utility.yul\":4282:4301   */\n      mstore\n        /* \"#utility.yul\":4334:4338   */\n      0x20\n        /* \"#utility.yul\":4329:4332   */\n      dup3\n        /* \"#utility.yul\":4325:4339   */\n      add\n        /* \"#utility.yul\":4310:4339   */\n      swap1\n      pop\n        /* \"#utility.yul\":4176:4345   */\n      swap3\n      swap2\n      pop\n      pop\n      jump\t// out\n        /* \"#utility.yul\":4351:4575   */\n    tag_56:\n        /* \"#utility.yul\":4491:4525   */\n      0x42616e6b3a20776974686472617720616d6f756e742065786365656473206261\n        /* \"#utility.yul\":4487:4488   */\n      0x00\n        /* \"#utility.yul\":4479:4485   */\n      dup3\n        /* \"#utility.yul\":4475:4489   */\n      add\n        /* \"#utility.yul\":4468:4526   */\n      mstore\n        /* \"#utility.yul\":4560:4567   */\n      0x6c616e6365000000000000000000000000000000000000000000000000000000\n        /* \"#utility.yul\":4555:4557   */\n      0x20\n        /* \"#utility.yul\":4547:4553   */\n      dup3\n        /* \"#utility.yul\":4543:4558   */\n      add\n        /* \"#utility.yul\":4536:4568   */\n      mstore\n        /* \"#utility.yul\":4351:4575   */\n      pop\n      jump\t// out\n        /* \"#utility.yul\":4581:4947   */\n    tag_57:\n        /* \"#utility.yul\":4723:4726   */\n      0x00\n        /* \"#utility.yul\":4744:4811   */\n      tag_115\n        /* \"#utility.yul\":4808:4810   */\n      0x25\n        /* \"#utility.yul\":4803:4806   */\n      dup4\n        /* \"#utility.yul\":4744:4811   */\n      tag_55\n      jump\t// in\n    tag_115:\n        /* \"#utility.yul\":4737:4811   */\n      swap2\n      pop\n        /* \"#utility.yul\":4820:4913   */\n      tag_116\n        /* \"#utility.yul\":4909:4912   */\n      dup3\n        /* \"#utility.yul\":4820:4913   */\n      tag_56\n      jump\t// in\n    tag_116:\n        /* \"#utility.yul\":4938:4940   */\n      0x40\n        /* \"#utility.yul\":4933:4936   */\n      dup3\n        /* \"#utility.yul\":4929:4941   */\n      add\n        /* \"#utility.yul\":4922:4941   */\n      swap1\n      pop\n        /* \"#utility.yul\":4581:4947   */\n      swap2\n      swap1\n      pop\n      jump\t// out\n        /* \"#utility.yul\":4953:5372   */\n    tag_31:\n        /* \"#utility.yul\":5119:5123   */\n      0x00\n        /* \"#utility.yul\":5157:5159   */\n      0x20\n        /* \"#utility.yul\":5146:5155   */\n      dup3\n        /* \"#utility.yul\":5142:5160   */\n      add\n        /* \"#utility.yul\":5134:5160   */\n      swap1\n      pop\n        /* \"#utility.yul\":5206:5215   */\n      dup2\n        /* \"#utility.yul\":5200:5204   */\n      dup2\n        /* \"#utility.yul\":5196:5216   */\n      sub\n        /* \"#utility.yul\":5192:5193   */\n      0x00\n        /* \"#utility.yul\":5181:5190   */\n      dup4\n        /* \"#utility.yul\":5177:5194   */\n      add\n        /* \"#utility.yul\":5170:5217   */\n      mstore\n        /* \"#utility.yul\":5234:5365   */\n      tag_118\n        /* \"#utility.yul\":5360:5364   */\n      dup2\n        /* \"#utility.yul\":5234:5365   */\n      tag_57\n      jump\t// in\n    tag_118:\n        /* \"#utility.yul\":5226:5365   */\n      swap1\n      pop\n        /* \"#utility.yul\":4953:5372   */\n      swap2\n      swap1\n      pop\n      jump\t// out\n        /* \"#utility.yul\":5378:5572   */\n    tag_33:\n        /* \"#utility.yul\":5418:5422   */\n      0x00\n        /* \"#utility.yul\":5438:5458   */\n      tag_120\n        /* \"#utility.yul\":5456:5457   */\n      dup3\n        /* \"#utility.yul\":5438:5458   */\n      tag_46\n      jump\t// in\n    tag_120:\n        /* \"#utility.yul\":5433:5458   */\n      swap2\n      pop\n        /* \"#utility.yul\":5472:5492   */\n      tag_121\n        /* \"#utility.yul\":5490:5491   */\n      dup4\n        /* \"#utility.yul\":5472:5492   */\n      tag_46\n      jump\t// in\n    tag_121:\n        /* \"#utility.yul\":5467:5492   */\n      swap3\n      pop\n        /* \"#utility.yul\":5516:5517   */\n      dup3\n        /* \"#utility.yul\":5513:5514   */\n      dup3\n        /* \"#utility.yul\":5509:5518   */\n      sub\n        /* \"#utility.yul\":5501:5518   */\n      swap1\n      pop\n        /* \"#utility.yul\":5540:5541   */\n      dup2\n        /* \"#utility.yul\":5534:5538   */\n      dup2\n        /* \"#utility.yul\":5531:5542   */\n      gt\n        /* \"#utility.yul\":5528:5565   */\n      iszero\n      tag_122\n      jumpi\n        /* \"#utility.yul\":5545:5563   */\n      tag_123\n      tag_54\n      jump\t// in\n    tag_123:\n        /* \"#utility.yul\":5528:5565   */\n    tag_122:\n        /* \"#utility.yul\":5378:5572   */\n      swap3\n      swap2\n      pop\n      pop\n      jump\t// out\n        /* \"#utility.yul\":5578:5910   */\n    tag_35:\n        /* \"#utility.yul\":5699:5703   */\n      0x00\n        /* \"#utility.yul\":5737:5739   */\n      0x40\n        /* \"#utility.yul\":5726:5735   */\n      dup3\n        /* \"#utility.yul\":5722:5740   */\n      add\n        /* \"#utility.yul\":5714:5740   */\n      swap1\n      pop\n        /* \"#utility.yul\":5750:5821   */\n      tag_125\n        /* \"#utility.yul\":5818:5819   */\n      0x00\n        /* \"#utility.yul\":5807:5816   */\n      dup4\n        /* \"#utility.yul\":5803:5820   */\n      add\n        /* \"#utility.yul\":5794:5800   */\n      dup6\n        /* \"#utility.yul\":5750:5821   */\n      tag_50\n      jump\t// in\n    tag_125:\n        /* \"#utility.yul\":5831:5903   */\n      tag_126\n        /* \"#utility.yul\":5899:5901   */\n      0x20\n        /* \"#utility.yul\":5888:5897   */\n      dup4\n        /* \"#utility.yul\":5884:5902   */\n      add\n        /* \"#utility.yul\":5875:5881   */\n      dup5\n        /* \"#utility.yul\":5831:5903   */\n      tag_47\n      jump\t// in\n    tag_126:\n        /* \"#utility.yul\":5578:5910   */\n      swap4\n      swap3\n      pop\n      pop\n      pop\n      jump\t// out\n\n    auxdata: 0xa264697066735822122055b78a2a80931eb2f5879f011315ed6c145960a0aec6b3fc8f36f05d58fe087864736f6c63430008190033\n}\n",
				"bytecode": {
					"linkReferences": {},
					"object": "6080604052348015600e575f80fd5b506107168061001c5f395ff3fe608060405234801561000f575f80fd5b506004361061003f575f3560e01c806345f2d1051461004357806347e7ef2414610073578063f3fef3a31461008f575b5f80fd5b61005d6004803603810190610058919061040d565b6100ab565b60405161006a9190610463565b60405180910390f35b61008d600480360381019061008891906104a6565b6100ca565b005b6100a960048036038101906100a491906104a6565b6101de565b005b5f602052815f5260405f20602052805f5260405f205f91509150505481565b5f8290508073ffffffffffffffffffffffffffffffffffffffff166323b872dd3330856040518463ffffffff1660e01b815260040161010b939291906104f3565b6020604051808303815f875af1158015610127573d5f803e3d5ffd5b505050506040513d601f19601f8201168201806040525081019061014b919061055d565b50815f808573ffffffffffffffffffffffffffffffffffffffff1673ffffffffffffffffffffffffffffffffffffffff1681526020019081526020015f205f3373ffffffffffffffffffffffffffffffffffffffff1673ffffffffffffffffffffffffffffffffffffffff1681526020019081526020015f205f8282546101d291906105b5565b92505081905550505050565b5f805f8473ffffffffffffffffffffffffffffffffffffffff1673ffffffffffffffffffffffffffffffffffffffff1681526020019081526020015f205f3373ffffffffffffffffffffffffffffffffffffffff1673ffffffffffffffffffffffffffffffffffffffff1681526020019081526020015f205490508082111561029c576040517f08c379a000000000000000000000000000000000000000000000000000000000815260040161029390610668565b60405180910390fd5b5f839050825f808673ffffffffffffffffffffffffffffffffffffffff1673ffffffffffffffffffffffffffffffffffffffff1681526020019081526020015f205f3373ffffffffffffffffffffffffffffffffffffffff1673ffffffffffffffffffffffffffffffffffffffff1681526020019081526020015f205f8282546103269190610686565b925050819055508073ffffffffffffffffffffffffffffffffffffffff1663a9059cbb33856040518363ffffffff1660e01b81526004016103689291906106b9565b6020604051808303815f875af1158015610384573d5f803e3d5ffd5b505050506040513d601f19601f820116820180604052508101906103a8919061055d565b5050505050565b5f80fd5b5f73ffffffffffffffffffffffffffffffffffffffff82169050919050565b5f6103dc826103b3565b9050919050565b6103ec816103d2565b81146103f6575f80fd5b50565b5f81359050610407816103e3565b92915050565b5f8060408385031215610423576104226103af565b5b5f610430858286016103f9565b9250506020610441858286016103f9565b9150509250929050565b5f819050919050565b61045d8161044b565b82525050565b5f6020820190506104765f830184610454565b92915050565b6104858161044b565b811461048f575f80fd5b50565b5f813590506104a08161047c565b92915050565b5f80604083850312156104bc576104bb6103af565b5b5f6104c9858286016103f9565b92505060206104da85828601610492565b9150509250929050565b6104ed816103d2565b82525050565b5f6060820190506105065f8301866104e4565b61051360208301856104e4565b6105206040830184610454565b949350505050565b5f8115159050919050565b61053c81610528565b8114610546575f80fd5b50565b5f8151905061055781610533565b92915050565b5f60208284031215610572576105716103af565b5b5f61057f84828501610549565b91505092915050565b7f4e487b71000000000000000000000000000000000000000000000000000000005f52601160045260245ffd5b5f6105bf8261044b565b91506105ca8361044b565b92508282019050808211156105e2576105e1610588565b5b92915050565b5f82825260208201905092915050565b7f42616e6b3a20776974686472617720616d6f756e7420657863656564732062615f8201527f6c616e6365000000000000000000000000000000000000000000000000000000602082015250565b5f6106526025836105e8565b915061065d826105f8565b604082019050919050565b5f6020820190508181035f83015261067f81610646565b9050919050565b5f6106908261044b565b915061069b8361044b565b92508282039050818111156106b3576106b2610588565b5b92915050565b5f6040820190506106cc5f8301856104e4565b6106d96020830184610454565b939250505056fea264697066735822122055b78a2a80931eb2f5879f011315ed6c145960a0aec6b3fc8f36f05d58fe087864736f6c63430008190033",
					"opcodes": "PUSH1 0x80 PUSH1 0x40 MSTORE CALLVALUE DUP1 ISZERO PUSH1 0xE JUMPI PUSH0 DUP1 REVERT JUMPDEST POP PUSH2 0x716 DUP1 PUSH2 0x1C PUSH0 CODECOPY PUSH0 RETURN INVALID PUSH1 0x80 PUSH1 0x40 MSTORE CALLVALUE DUP1 ISZERO PUSH2 0xF JUMPI PUSH0 DUP1 REVERT JUMPDEST POP PUSH1 0x4 CALLDATASIZE LT PUSH2 0x3F JUMPI PUSH0 CALLDATALOAD PUSH1 0xE0 SHR DUP1 PUSH4 0x45F2D105 EQ PUSH2 0x43 JUMPI DUP1 PUSH4 0x47E7EF24 EQ PUSH2 0x73 JUMPI DUP1 PUSH4 0xF3FEF3A3 EQ PUSH2 0x8F JUMPI JUMPDEST PUSH0 DUP1 REVERT JUMPDEST PUSH2 0x5D PUSH1 0x4 DUP1 CALLDATASIZE SUB DUP2 ADD SWAP1 PUSH2 0x58 SWAP2 SWAP1 PUSH2 0x40D JUMP JUMPDEST PUSH2 0xAB JUMP JUMPDEST PUSH1 0x40 MLOAD PUSH2 0x6A SWAP2 SWAP1 PUSH2 0x463 JUMP JUMPDEST PUSH1 0x40 MLOAD DUP1 SWAP2 SUB SWAP1 RETURN JUMPDEST PUSH2 0x8D PUSH1 0x4 DUP1 CALLDATASIZE SUB DUP2 ADD SWAP1 PUSH2 0x88 SWAP2 SWAP1 PUSH2 0x4A6 JUMP JUMPDEST PUSH2 0xCA JUMP JUMPDEST STOP JUMPDEST PUSH2 0xA9 PUSH1 0x4 DUP1 CALLDATASIZE SUB DUP2 ADD SWAP1 PUSH2 0xA4 SWAP2 SWAP1 PUSH2 0x4A6 JUMP JUMPDEST PUSH2 0x1DE JUMP JUMPDEST STOP JUMPDEST PUSH0 PUSH1 0x20 MSTORE DUP2 PUSH0 MSTORE PUSH1 0x40 PUSH0 KECCAK256 PUSH1 0x20 MSTORE DUP1 PUSH0 MSTORE PUSH1 0x40 PUSH0 KECCAK256 PUSH0 SWAP2 POP SWAP2 POP POP SLOAD DUP2 JUMP JUMPDEST PUSH0 DUP3 SWAP1 POP DUP1 PUSH20 0xFFFFFFFFFFFFFFFFFFFFFFFFFFFFFFFFFFFFFFFF AND PUSH4 0x23B872DD CALLER ADDRESS DUP6 PUSH1 0x40 MLOAD DUP5 PUSH4 0xFFFFFFFF AND PUSH1 0xE0 SHL DUP2 MSTORE PUSH1 0x4 ADD PUSH2 0x10B SWAP4 SWAP3 SWAP2 SWAP1 PUSH2 0x4F3 JUMP JUMPDEST PUSH1 0x20 PUSH1 0x40 MLOAD DUP1 DUP4 SUB DUP2 PUSH0 DUP8 GAS CALL ISZERO DUP1 ISZERO PUSH2 0x127 JUMPI RETURNDATASIZE PUSH0 DUP1 RETURNDATACOPY RETURNDATASIZE PUSH0 REVERT JUMPDEST POP POP POP POP PUSH1 0x40 MLOAD RETURNDATASIZE PUSH1 0x1F NOT PUSH1 0x1F DUP3 ADD AND DUP3 ADD DUP1 PUSH1 0x40 MSTORE POP DUP2 ADD SWAP1 PUSH2 0x14B SWAP2 SWAP1 PUSH2 0x55D JUMP JUMPDEST POP DUP2 PUSH0 DUP1 DUP6 PUSH20 0xFFFFFFFFFFFFFFFFFFFFFFFFFFFFFFFFFFFFFFFF AND PUSH20 0xFFFFFFFFFFFFFFFFFFFFFFFFFFFFFFFFFFFFFFFF AND DUP2 MSTORE PUSH1 0x20 ADD SWAP1 DUP2 MSTORE PUSH1 0x20 ADD PUSH0 KECCAK256 PUSH0 CALLER PUSH20 0xFFFFFFFFFFFFFFFFFFFFFFFFFFFFFFFFFFFFFFFF AND PUSH20 0xFFFFFFFFFFFFFFFFFFFFFFFFFFFFFFFFFFFFFFFF AND DUP2 MSTORE PUSH1 0x20 ADD SWAP1 DUP2 MSTORE PUSH1 0x20 ADD PUSH0 KECCAK256 PUSH0 DUP3 DUP3 SLOAD PUSH2 0x1D2 SWAP2 SWAP1 PUSH2 0x5B5 JUMP JUMPDEST SWAP3 POP POP DUP2 SWAP1 SSTORE POP POP POP POP JUMP JUMPDEST PUSH0 DUP1 PUSH0 DUP5 PUSH20 0xFFFFFFFFFFFFFFFFFFFFFFFFFFFFFFFFFFFFFFFF AND PUSH20 0xFFFFFFFFFFFFFFFFFFFFFFFFFFFFFFFFFFFFFFFF AND DUP2 MSTORE PUSH1 0x20 ADD SWAP1 DUP2 MSTORE PUSH1 0x20 ADD PUSH0 KECCAK256 PUSH0 CALLER PUSH20 0xFFFFFFFFFFFFFFFFFFFFFFFFFFFFFFFFFFFFFFFF AND PUSH20 0xFFFFFFFFFFFFFFFFFFFFFFFFFFFFFFFFFFFFFFFF AND DUP2 MSTORE PUSH1 0x20 ADD SWAP1 DUP2 MSTORE PUSH1 0x20 ADD PUSH0 KECCAK256 SLOAD SWAP1 POP DUP1 DUP3 GT ISZERO PUSH2 0x29C JUMPI PUSH1 0x40 MLOAD PUSH32 0x8C379A000000000000000000000000000000000000000000000000000000000 DUP2 MSTORE PUSH1 0x4 ADD PUSH2 0x293 SWAP1 PUSH2 0x668 JUMP JUMPDEST PUSH1 0x40 MLOAD DUP1 SWAP2 SUB SWAP1 REVERT JUMPDEST PUSH0 DUP4 SWAP1 POP DUP3 PUSH0 DUP1 DUP7 PUSH20 0xFFFFFFFFFFFFFFFFFFFFFFFFFFFFFFFFFFFFFFFF AND PUSH20 0xFFFFFFFFFFFFFFFFFFFFFFFFFFFFFFFFFFFFFFFF AND DUP2 MSTORE PUSH1 0x20 ADD SWAP1 DUP2 MSTORE PUSH1 0x20 ADD PUSH0 KECCAK256 PUSH0 CALLER PUSH20 0xFFFFFFFFFFFFFFFFFFFFFFFFFFFFFFFFFFFFFFFF AND PUSH20 0xFFFFFFFFFFFFFFFFFFFFFFFFFFFFFFFFFFFFFFFF AND DUP2 MSTORE PUSH1 0x20 ADD SWAP1 DUP2 MSTORE PUSH1 0x20 ADD PUSH0 KECCAK256 PUSH0 DUP3 DUP3 SLOAD PUSH2 0x326 SWAP2 SWAP1 PUSH2 0x686 JUMP JUMPDEST SWAP3 POP POP DUP2 SWAP1 SSTORE POP DUP1 PUSH20 0xFFFFFFFFFFFFFFFFFFFFFFFFFFFFFFFFFFFFFFFF AND PUSH4 0xA9059CBB CALLER DUP6 PUSH1 0x40 MLOAD DUP4 PUSH4 0xFFFFFFFF AND PUSH1 0xE0 SHL DUP2 MSTORE PUSH1 0x4 ADD PUSH2 0x368 SWAP3 SWAP2 SWAP1 PUSH2 0x6B9 JUMP JUMPDEST PUSH1 0x20 PUSH1 0x40 MLOAD DUP1 DUP4 SUB DUP2 PUSH0 DUP8 GAS CALL ISZERO DUP1 ISZERO PUSH2 0x384 JUMPI RETURNDATASIZE PUSH0 DUP1 RETURNDATACOPY RETURNDATASIZE PUSH0 REVERT JUMPDEST POP POP POP POP PUSH1 0x40 MLOAD RETURNDATASIZE PUSH1 0x1F NOT PUSH1 0x1F DUP3 ADD AND DUP3 ADD DUP1 PUSH1 0x40 MSTORE POP DUP2 ADD SWAP1 PUSH2 0x3A8 SWAP2 SWAP1 PUSH2 0x55D JUMP JUMPDEST POP POP POP POP POP JUMP JUMPDEST PUSH0 DUP1 REVERT JUMPDEST PUSH0 PUSH20 0xFFFFFFFFFFFFFFFFFFFFFFFFFFFFFFFFFFFFFFFF DUP3 AND SWAP1 POP SWAP2 SWAP1 POP JUMP JUMPDEST PUSH0 PUSH2 0x3DC DUP3 PUSH2 0x3B3 JUMP JUMPDEST SWAP1 POP SWAP2 SWAP1 POP JUMP JUMPDEST PUSH2 0x3EC DUP2 PUSH2 0x3D2 JUMP JUMPDEST DUP2 EQ PUSH2 0x3F6 JUMPI PUSH0 DUP1 REVERT JUMPDEST POP JUMP JUMPDEST PUSH0 DUP2 CALLDATALOAD SWAP1 POP PUSH2 0x407 DUP2 PUSH2 0x3E3 JUMP JUMPDEST SWAP3 SWAP2 POP POP JUMP JUMPDEST PUSH0 DUP1 PUSH1 0x40 DUP4 DUP6 SUB SLT ISZERO PUSH2 0x423 JUMPI PUSH2 0x422 PUSH2 0x3AF JUMP JUMPDEST JUMPDEST PUSH0 PUSH2 0x430 DUP6 DUP3 DUP7 ADD PUSH2 0x3F9 JUMP JUMPDEST SWAP3 POP POP PUSH1 0x20 PUSH2 0x441 DUP6 DUP3 DUP7 ADD PUSH2 0x3F9 JUMP JUMPDEST SWAP2 POP POP SWAP3 POP SWAP3 SWAP1 POP JUMP JUMPDEST PUSH0 DUP2 SWAP1 POP SWAP2 SWAP1 POP JUMP JUMPDEST PUSH2 0x45D DUP2 PUSH2 0x44B JUMP JUMPDEST DUP3 MSTORE POP POP JUMP JUMPDEST PUSH0 PUSH1 0x20 DUP3 ADD SWAP1 POP PUSH2 0x476 PUSH0 DUP4 ADD DUP5 PUSH2 0x454 JUMP JUMPDEST SWAP3 SWAP2 POP POP JUMP JUMPDEST PUSH2 0x485 DUP2 PUSH2 0x44B JUMP JUMPDEST DUP2 EQ PUSH2 0x48F JUMPI PUSH0 DUP1 REVERT JUMPDEST POP JUMP JUMPDEST PUSH0 DUP2 CALLDATALOAD SWAP1 POP PUSH2 0x4A0 DUP2 PUSH2 0x47C JUMP JUMPDEST SWAP3 SWAP2 POP POP JUMP JUMPDEST PUSH0 DUP1 PUSH1 0x40 DUP4 DUP6 SUB SLT ISZERO PUSH2 0x4BC JUMPI PUSH2 0x4BB PUSH2 0x3AF JUMP JUMPDEST JUMPDEST PUSH0 PUSH2 0x4C9 DUP6 DUP3 DUP7 ADD PUSH2 0x3F9 JUMP JUMPDEST SWAP3 POP POP PUSH1 0x20 PUSH2 0x4DA DUP6 DUP3 DUP7 ADD PUSH2 0x492 JUMP JUMPDEST SWAP2 POP POP SWAP3 POP SWAP3 SWAP1 POP JUMP JUMPDEST PUSH2 0x4ED DUP2 PUSH2 0x3D2 JUMP JUMPDEST DUP3 MSTORE POP POP JUMP JUMPDEST PUSH0 PUSH1 0x60 DUP3 ADD SWAP1 POP PUSH2 0x506 PUSH0 DUP4 ADD DUP7 PUSH2 0x4E4 JUMP JUMPDEST PUSH2 0x513 PUSH1 0x20 DUP4 ADD DUP6 PUSH2 0x4E4 JUMP JUMPDEST PUSH2 0x520 PUSH1 0x40 DUP4 ADD DUP5 PUSH2 0x454 JUMP JUMPDEST SWAP5 SWAP4 POP POP POP POP JUMP JUMPDEST PUSH0 DUP2 ISZERO ISZERO SWAP1 POP SWAP2 SWAP1 POP JUMP JUMPDEST PUSH2 0x53C DUP2 PUSH2 0x528 JUMP JUMPDEST DUP2 EQ PUSH2 0x546 JUMPI PUSH0 DUP1 REVERT JUMPDEST POP JUMP JUMPDEST PUSH0 DUP2 MLOAD SWAP1 POP PUSH2 0x557 DUP2 PUSH2 0x533 JUMP JUMPDEST SWAP3 SWAP2 POP POP JUMP JUMPDEST PUSH0 PUSH1 0x20 DUP3 DUP5 SUB SLT ISZERO PUSH2 0x572 JUMPI PUSH2 0x571 PUSH2 0x3AF JUMP JUMPDEST JUMPDEST PUSH0 PUSH2 0x57F DUP5 DUP3 DUP6 ADD PUSH2 0x549 JUMP JUMPDEST SWAP2 POP POP SWAP3 SWAP2 POP POP JUMP JUMPDEST PUSH32 0x4E487B7100000000000000000000000000000000000000000000000000000000 PUSH0 MSTORE PUSH1 0x11 PUSH1 0x4 MSTORE PUSH1 0x24 PUSH0 REVERT JUMPDEST PUSH0 PUSH2 0x5BF DUP3 PUSH2 0x44B JUMP JUMPDEST SWAP2 POP PUSH2 0x5CA DUP4 PUSH2 0x44B JUMP JUMPDEST SWAP3 POP DUP3 DUP3 ADD SWAP1 POP DUP1 DUP3 GT ISZERO PUSH2 0x5E2 JUMPI PUSH2 0x5E1 PUSH2 0x588 JUMP JUMPDEST JUMPDEST SWAP3 SWAP2 POP POP JUMP JUMPDEST PUSH0 DUP3 DUP3 MSTORE PUSH1 0x20 DUP3 ADD SWAP1 POP SWAP3 SWAP2 POP POP JUMP JUMPDEST PUSH32 0x42616E6B3A20776974686472617720616D6F756E742065786365656473206261 PUSH0 DUP3 ADD MSTORE PUSH32 0x6C616E6365000000000000000000000000000000000000000000000000000000 PUSH1 0x20 DUP3 ADD MSTORE POP JUMP JUMPDEST PUSH0 PUSH2 0x652 PUSH1 0x25 DUP4 PUSH2 0x5E8 JUMP JUMPDEST SWAP2 POP PUSH2 0x65D DUP3 PUSH2 0x5F8 JUMP JUMPDEST PUSH1 0x40 DUP3 ADD SWAP1 POP SWAP2 SWAP1 POP JUMP JUMPDEST PUSH0 PUSH1 0x20 DUP3 ADD SWAP1 POP DUP2 DUP2 SUB PUSH0 DUP4 ADD MSTORE PUSH2 0x67F DUP2 PUSH2 0x646 JUMP JUMPDEST SWAP1 POP SWAP2 SWAP1 POP JUMP JUMPDEST PUSH0 PUSH2 0x690 DUP3 PUSH2 0x44B JUMP JUMPDEST SWAP2 POP PUSH2 0x69B DUP4 PUSH2 0x44B JUMP JUMPDEST SWAP3 POP DUP3 DUP3 SUB SWAP1 POP DUP2 DUP2 GT ISZERO PUSH2 0x6B3 JUMPI PUSH2 0x6B2 PUSH2 0x588 JUMP JUMPDEST JUMPDEST SWAP3 SWAP2 POP POP JUMP JUMPDEST PUSH0 PUSH1 0x40 DUP3 ADD SWAP1 POP PUSH2 0x6CC PUSH0 DUP4 ADD DUP6 PUSH2 0x4E4 JUMP JUMPDEST PUSH2 0x6D9 PUSH1 0x20 DUP4 ADD DUP5 PUSH2 0x454 JUMP JUMPDEST SWAP4 SWAP3 POP POP POP JUMP INVALID LOG2 PUSH5 0x6970667358 0x22 SLT KECCAK256 SSTORE 0xB7 DUP11 0x2A DUP1 SWAP4 0x1E 0xB2 CREATE2 DUP8 SWAP16 ADD SGT ISZERO 0xED PUSH13 0x145960A0AEC6B3FC8F36F05D58 INVALID ADDMOD PUSH25 0x64736F6C634300081900330000000000000000000000000000 "
				},
				"gasEstimates": {
					"creation": {
						"codeDepositCost": "362800",
						"executionCost": "397",
						"totalCost": "363197"
					},
					"external": {
						"deposit(address,uint256)": "infinite",
						"userTokenBalances(address,address)": "infinite",
						"withdraw(address,uint256)": "infinite"
					}
				},
				"methodIdentifiers": {
					"deposit(address,uint256)": "47e7ef24",
					"userTokenBalances(address,address)": "45f2d105",
					"withdraw(address,uint256)": "f3fef3a3"
				}
			},
			"storageLayout": {
				"storage": [
					{
						"astId": 257,
						"contract": "TokenBank.sol:TokenBank",
						"label": "userTokenBalances",
						"offset": 0,
						"slot": "0",
						"type": "t_mapping(t_address,t_mapping(t_address,t_uint256))"
					}
				],
				"types": {
					"t_address": {
						"encoding": "inplace",
						"label": "address",
						"numberOfBytes": "20"
					},
					"t_mapping(t_address,t_mapping(t_address,t_uint256))": {
						"encoding": "mapping",
						"key": "t_address",
						"label": "mapping(address => mapping(address => uint256))",
						"numberOfBytes": "32",
						"value": "t_mapping(t_address,t_uint256)"
					},
					"t_mapping(t_address,t_uint256)": {
						"encoding": "mapping",
						"key": "t_address",
						"label": "mapping(address => uint256)",
						"numberOfBytes": "32",
						"value": "t_uint256"
					},
					"t_uint256": {
						"encoding": "inplace",
						"label": "uint256",
						"numberOfBytes": "32"
					}
				}
			},
			"userdoc": {
				"kind": "user",
				"methods": {
					"deposit(address,uint256)": {
						"notice": "指定代币地址与金额，向银行存入该代币."
					},
					"withdraw(address,uint256)": {
						"notice": "用户从银行提取自己的token"
					}
				},
				"version": 1
			}
		}
	}
}